{
  "contractName": "Survey",
  "abi": [
    {
      "constant": true,
      "inputs": [],
      "name": "deadline",
      "outputs": [
        {
          "name": "",
          "type": "uint256"
        }
      ],
      "payable": false,
      "stateMutability": "view",
      "type": "function"
    },
    {
      "constant": true,
      "inputs": [],
      "name": "manager",
      "outputs": [
        {
          "name": "",
          "type": "address"
        }
      ],
      "payable": false,
      "stateMutability": "view",
      "type": "function"
    },
    {
      "constant": true,
      "inputs": [],
      "name": "tokenReward",
      "outputs": [
        {
          "name": "",
          "type": "address"
        }
      ],
      "payable": false,
      "stateMutability": "view",
      "type": "function"
    },
    {
      "constant": true,
      "inputs": [],
      "name": "description",
      "outputs": [
        {
          "name": "",
          "type": "string"
        }
      ],
      "payable": false,
      "stateMutability": "view",
      "type": "function"
    },
    {
      "constant": true,
      "inputs": [],
      "name": "questions",
      "outputs": [
        {
          "name": "",
          "type": "string"
        }
      ],
      "payable": false,
      "stateMutability": "view",
      "type": "function"
    },
    {
      "constant": true,
      "inputs": [],
      "name": "owner",
      "outputs": [
        {
          "name": "",
          "type": "address"
        }
      ],
      "payable": false,
      "stateMutability": "view",
      "type": "function"
    },
    {
      "constant": false,
      "inputs": [
        {
          "name": "newOwner",
          "type": "address"
        }
      ],
      "name": "transferOwnership",
      "outputs": [],
      "payable": false,
      "stateMutability": "nonpayable",
      "type": "function"
    },
    {
      "inputs": [
        {
          "name": "_description",
          "type": "string"
        },
        {
          "name": "_questions",
          "type": "string"
        },
        {
          "name": "_durationInMinutes",
          "type": "uint256"
        },
        {
          "name": "tokenAddress",
          "type": "address"
        },
        {
          "name": "_owner",
          "type": "address"
        }
      ],
      "payable": false,
      "stateMutability": "nonpayable",
      "type": "constructor"
    },
    {
      "anonymous": false,
      "inputs": [
        {
          "indexed": true,
          "name": "previousOwner",
          "type": "address"
        },
        {
          "indexed": true,
          "name": "newOwner",
          "type": "address"
        }
      ],
      "name": "OwnershipTransferred",
      "type": "event"
    },
    {
      "constant": true,
      "inputs": [],
      "name": "getSummary",
      "outputs": [
        {
          "name": "",
          "type": "address"
        },
        {
          "name": "",
          "type": "string"
        },
        {
          "name": "",
          "type": "string"
        },
        {
          "name": "",
          "type": "uint256"
        },
        {
          "name": "",
          "type": "uint256"
        },
        {
          "name": "",
          "type": "address"
        },
        {
          "name": "",
          "type": "uint256"
        }
      ],
      "payable": false,
      "stateMutability": "view",
      "type": "function"
    },
    {
      "constant": false,
      "inputs": [],
      "name": "stopContract",
      "outputs": [],
      "payable": false,
      "stateMutability": "nonpayable",
      "type": "function"
    },
    {
      "constant": false,
      "inputs": [],
      "name": "activateContract",
      "outputs": [],
      "payable": false,
      "stateMutability": "nonpayable",
      "type": "function"
    },
    {
      "constant": true,
      "inputs": [],
      "name": "getRewardLeft",
      "outputs": [
        {
          "name": "",
          "type": "uint256"
        }
      ],
      "payable": false,
      "stateMutability": "view",
      "type": "function"
    },
    {
      "constant": false,
      "inputs": [
        {
          "name": "a",
          "type": "string"
        },
        {
          "name": "responder",
          "type": "address"
        }
      ],
      "name": "answer",
      "outputs": [],
      "payable": false,
      "stateMutability": "nonpayable",
      "type": "function"
    },
    {
      "constant": true,
      "inputs": [
        {
          "name": "add",
          "type": "address"
        }
      ],
      "name": "getAnswer",
      "outputs": [
        {
          "name": "",
          "type": "string"
        }
      ],
      "payable": false,
      "stateMutability": "view",
      "type": "function"
    },
    {
      "constant": true,
      "inputs": [],
      "name": "getRespondent",
      "outputs": [
        {
          "name": "",
          "type": "address[]"
        }
      ],
      "payable": false,
      "stateMutability": "view",
      "type": "function"
    },
    {
      "constant": false,
      "inputs": [],
      "name": "withdrawToken",
      "outputs": [],
      "payable": false,
      "stateMutability": "nonpayable",
      "type": "function"
    }
  ],
  "bytecode": "0x60806040526000600660006101000a81548160ff0219169083151502179055503480156200002c57600080fd5b5060405162001ae938038062001ae98339810180604052810190808051820192919060200180518201929190602001805190602001909291908051906020019092919080519060200190929190505050336000806101000a81548173ffffffffffffffffffffffffffffffffffffffff021916908373ffffffffffffffffffffffffffffffffffffffff1602179055508460049080519060200190620000d49291906200025c565b508360059080519060200190620000ed9291906200025c565b506200013462000116603c85620002076401000000000262001751179091906401000000009004565b426200023d6401000000000262001784179091906401000000009004565b600381905550806000806101000a81548173ffffffffffffffffffffffffffffffffffffffff021916908373ffffffffffffffffffffffffffffffffffffffff16021790555033600260006101000a81548173ffffffffffffffffffffffffffffffffffffffff021916908373ffffffffffffffffffffffffffffffffffffffff16021790555081600160006101000a81548173ffffffffffffffffffffffffffffffffffffffff021916908373ffffffffffffffffffffffffffffffffffffffff16021790555050505050506200030b565b600080828402905060008414806200022a57508284828115156200022757fe5b04145b15156200023357fe5b8091505092915050565b60008082840190508381101515156200025257fe5b8091505092915050565b828054600181600116156101000203166002900490600052602060002090601f016020900481019282601f106200029f57805160ff1916838001178555620002d0565b82800160010185558215620002d0579182015b82811115620002cf578251825591602001919060010190620002b2565b5b509050620002df9190620002e3565b5090565b6200030891905b8082111562000304576000816000905550600101620002ea565b5090565b90565b6117ce806200031b6000396000f3006080604052600436106100db576000357c0100000000000000000000000000000000000000000000000000000000900463ffffffff16806307b51d95146100e05780630aaa489f1461019c57806312253a6c146101c757806329dcb0cf146101de5780633c9fc491146102095780634051ddac14610292578063481c6a75146104095780636e66f6e9146104605780637284e416146104b757806377a49821146105475780638762a645146105d75780638da5cb5b146106435780638fda356d1461069a578063ca628c78146106b1578063f2fde38b146106c8575b600080fd5b3480156100ec57600080fd5b50610121600480360381019080803573ffffffffffffffffffffffffffffffffffffffff16906020019092919050505061070b565b6040518080602001828103825283818151815260200191508051906020019080838360005b83811015610161578082015181840152602081019050610146565b50505050905090810190601f16801561018e5780820380516001836020036101000a031916815260200191505b509250505060405180910390f35b3480156101a857600080fd5b506101b16107ef565b6040518082815260200191505060405180910390f35b3480156101d357600080fd5b506101dc610905565b005b3480156101ea57600080fd5b506101f361097d565b6040518082815260200191505060405180910390f35b34801561021557600080fd5b50610290600480360381019080803590602001908201803590602001908080601f0160208091040260200160405190810160405280939291908181526020018383808284378201915050505050509192919290803573ffffffffffffffffffffffffffffffffffffffff169060200190929190505050610983565b005b34801561029e57600080fd5b506102a7610c11565b604051808873ffffffffffffffffffffffffffffffffffffffff1673ffffffffffffffffffffffffffffffffffffffff16815260200180602001806020018781526020018681526020018573ffffffffffffffffffffffffffffffffffffffff1673ffffffffffffffffffffffffffffffffffffffff168152602001848152602001838103835289818151815260200191508051906020019080838360005b83811015610361578082015181840152602081019050610346565b50505050905090810190601f16801561038e5780820380516001836020036101000a031916815260200191505b50838103825288818151815260200191508051906020019080838360005b838110156103c75780820151818401526020810190506103ac565b50505050905090810190601f1680156103f45780820380516001836020036101000a031916815260200191505b50995050505050505050505060405180910390f35b34801561041557600080fd5b5061041e610e96565b604051808273ffffffffffffffffffffffffffffffffffffffff1673ffffffffffffffffffffffffffffffffffffffff16815260200191505060405180910390f35b34801561046c57600080fd5b50610475610ebc565b604051808273ffffffffffffffffffffffffffffffffffffffff1673ffffffffffffffffffffffffffffffffffffffff16815260200191505060405180910390f35b3480156104c357600080fd5b506104cc610ee2565b6040518080602001828103825283818151815260200191508051906020019080838360005b8381101561050c5780820151818401526020810190506104f1565b50505050905090810190601f1680156105395780820380516001836020036101000a031916815260200191505b509250505060405180910390f35b34801561055357600080fd5b5061055c610f80565b6040518080602001828103825283818151815260200191508051906020019080838360005b8381101561059c578082015181840152602081019050610581565b50505050905090810190601f1680156105c95780820380516001836020036101000a031916815260200191505b509250505060405180910390f35b3480156105e357600080fd5b506105ec61101e565b6040518080602001828103825283818151815260200191508051906020019060200280838360005b8381101561062f578082015181840152602081019050610614565b505050509050019250505060405180910390f35b34801561064f57600080fd5b506106586110ac565b604051808273ffffffffffffffffffffffffffffffffffffffff1673ffffffffffffffffffffffffffffffffffffffff16815260200191505060405180910390f35b3480156106a657600080fd5b506106af6110d1565b005b3480156106bd57600080fd5b506106c6611149565b005b3480156106d457600080fd5b50610709600480360381019080803573ffffffffffffffffffffffffffffffffffffffff16906020019092919050505061153e565b005b6060600760008373ffffffffffffffffffffffffffffffffffffffff1673ffffffffffffffffffffffffffffffffffffffff1681526020019081526020016000206000018054600181600116156101000203166002900480601f0160208091040260200160405190810160405280929190818152602001828054600181600116156101000203166002900480156107e35780601f106107b8576101008083540402835291602001916107e3565b820191906000526020600020905b8154815290600101906020018083116107c657829003601f168201915b50505050509050919050565b6000610900600880549050600160009054906101000a900473ffffffffffffffffffffffffffffffffffffffff1673ffffffffffffffffffffffffffffffffffffffff166370a08231306040518263ffffffff167c0100000000000000000000000000000000000000000000000000000000028152600401808273ffffffffffffffffffffffffffffffffffffffff1673ffffffffffffffffffffffffffffffffffffffff168152602001915050602060405180830381600087803b1580156108b757600080fd5b505af11580156108cb573d6000803e3d6000fd5b505050506040513d60208110156108e157600080fd5b810190808051906020019092919050505061169390919063ffffffff16565b905090565b6000809054906101000a900473ffffffffffffffffffffffffffffffffffffffff1673ffffffffffffffffffffffffffffffffffffffff163373ffffffffffffffffffffffffffffffffffffffff1614151561096057600080fd5b6001600660006101000a81548160ff021916908315150217905550565b60035481565b600161098d6107ef565b1015151561099a57600080fd5b60035442111515156109ab57600080fd5b600260009054906101000a900473ffffffffffffffffffffffffffffffffffffffff1673ffffffffffffffffffffffffffffffffffffffff163373ffffffffffffffffffffffffffffffffffffffff16141515610a0757600080fd5b600660009054906101000a900460ff16151515610a2357600080fd5b600760008273ffffffffffffffffffffffffffffffffffffffff1673ffffffffffffffffffffffffffffffffffffffff16815260200190815260200160002060010160009054906101000a900460ff1615610ae6576040517f08c379a00000000000000000000000000000000000000000000000000000000081526004018080602001828103825260108152602001807f416c726561647920616e7377657265640000000000000000000000000000000081525060200191505060405180910390fd5b60088190806001815401808255809150509060018203906000526020600020016000909192909190916101000a81548173ffffffffffffffffffffffffffffffffffffffff021916908373ffffffffffffffffffffffffffffffffffffffff1602179055505060606040519081016040528083815260200160011515815260200160001515815250600760008373ffffffffffffffffffffffffffffffffffffffff1673ffffffffffffffffffffffffffffffffffffffff1681526020019081526020016000206000820151816000019080519060200190610bc99291906116ac565b5060208201518160010160006101000a81548160ff02191690831515021790555060408201518160010160016101000a81548160ff0219169083151502179055509050505050565b60006060806000806000803060046005600880549050600160009054906101000a900473ffffffffffffffffffffffffffffffffffffffff1673ffffffffffffffffffffffffffffffffffffffff166370a08231306040518263ffffffff167c0100000000000000000000000000000000000000000000000000000000028152600401808273ffffffffffffffffffffffffffffffffffffffff1673ffffffffffffffffffffffffffffffffffffffff168152602001915050602060405180830381600087803b158015610ce457600080fd5b505af1158015610cf8573d6000803e3d6000fd5b505050506040513d6020811015610d0e57600080fd5b81019080805190602001909291905050506000809054906101000a900473ffffffffffffffffffffffffffffffffffffffff16600354869650858054600181600116156101000203166002900480601f016020809104026020016040519081016040528092919081815260200182805460018160011615610100020316600290048015610ddc5780601f10610db157610100808354040283529160200191610ddc565b820191906000526020600020905b815481529060010190602001808311610dbf57829003601f168201915b50505050509550848054600181600116156101000203166002900480601f016020809104026020016040519081016040528092919081815260200182805460018160011615610100020316600290048015610e785780601f10610e4d57610100808354040283529160200191610e78565b820191906000526020600020905b815481529060010190602001808311610e5b57829003601f168201915b50505050509450965096509650965096509650965090919293949596565b600260009054906101000a900473ffffffffffffffffffffffffffffffffffffffff1681565b600160009054906101000a900473ffffffffffffffffffffffffffffffffffffffff1681565b60048054600181600116156101000203166002900480601f016020809104026020016040519081016040528092919081815260200182805460018160011615610100020316600290048015610f785780601f10610f4d57610100808354040283529160200191610f78565b820191906000526020600020905b815481529060010190602001808311610f5b57829003601f168201915b505050505081565b60058054600181600116156101000203166002900480601f0160208091040260200160405190810160405280929190818152602001828054600181600116156101000203166002900480156110165780601f10610feb57610100808354040283529160200191611016565b820191906000526020600020905b815481529060010190602001808311610ff957829003601f168201915b505050505081565b606060088054806020026020016040519081016040528092919081815260200182805480156110a257602002820191906000526020600020905b8160009054906101000a900473ffffffffffffffffffffffffffffffffffffffff1673ffffffffffffffffffffffffffffffffffffffff1681526020019060010190808311611058575b5050505050905090565b6000809054906101000a900473ffffffffffffffffffffffffffffffffffffffff1681565b6000809054906101000a900473ffffffffffffffffffffffffffffffffffffffff1673ffffffffffffffffffffffffffffffffffffffff163373ffffffffffffffffffffffffffffffffffffffff1614151561112c57600080fd5b6000600660006101000a81548160ff021916908315150217905550565b6000806003544211151561115c57600080fd5b600660009054906101000a900460ff1615151561117857600080fd5b6000809054906101000a900473ffffffffffffffffffffffffffffffffffffffff1673ffffffffffffffffffffffffffffffffffffffff163373ffffffffffffffffffffffffffffffffffffffff1614156113ca576112dc600880549050600160009054906101000a900473ffffffffffffffffffffffffffffffffffffffff1673ffffffffffffffffffffffffffffffffffffffff166370a08231306040518263ffffffff167c0100000000000000000000000000000000000000000000000000000000028152600401808273ffffffffffffffffffffffffffffffffffffffff1673ffffffffffffffffffffffffffffffffffffffff168152602001915050602060405180830381600087803b15801561129357600080fd5b505af11580156112a7573d6000803e3d6000fd5b505050506040513d60208110156112bd57600080fd5b810190808051906020019092919050505061169390919063ffffffff16565b915060018211156113c557600160009054906101000a900473ffffffffffffffffffffffffffffffffffffffff1673ffffffffffffffffffffffffffffffffffffffff1663a9059cbb33846040518363ffffffff167c0100000000000000000000000000000000000000000000000000000000028152600401808373ffffffffffffffffffffffffffffffffffffffff1673ffffffffffffffffffffffffffffffffffffffff16815260200182815260200192505050600060405180830381600087803b1580156113ac57600080fd5b505af11580156113c0573d6000803e3d6000fd5b505050505b61153a565b600760003373ffffffffffffffffffffffffffffffffffffffff1673ffffffffffffffffffffffffffffffffffffffff16815260200190815260200160002090508060010160009054906101000a900460ff16801561143857508060010160019054906101000a900460ff16155b156115395760018160010160016101000a81548160ff021916908315150217905550600160009054906101000a900473ffffffffffffffffffffffffffffffffffffffff1673ffffffffffffffffffffffffffffffffffffffff1663a9059cbb3360016040518363ffffffff167c0100000000000000000000000000000000000000000000000000000000028152600401808373ffffffffffffffffffffffffffffffffffffffff1673ffffffffffffffffffffffffffffffffffffffff16815260200182815260200192505050600060405180830381600087803b15801561152057600080fd5b505af1158015611534573d6000803e3d6000fd5b505050505b5b5050565b6000809054906101000a900473ffffffffffffffffffffffffffffffffffffffff1673ffffffffffffffffffffffffffffffffffffffff163373ffffffffffffffffffffffffffffffffffffffff1614151561159957600080fd5b600073ffffffffffffffffffffffffffffffffffffffff168173ffffffffffffffffffffffffffffffffffffffff16141515156115d557600080fd5b8073ffffffffffffffffffffffffffffffffffffffff166000809054906101000a900473ffffffffffffffffffffffffffffffffffffffff1673ffffffffffffffffffffffffffffffffffffffff167f8be0079c531659141344cd1fd0a4f28419497f9722a3daafe3b4186f6b6457e060405160405180910390a3806000806101000a81548173ffffffffffffffffffffffffffffffffffffffff021916908373ffffffffffffffffffffffffffffffffffffffff16021790555050565b60008282111515156116a157fe5b818303905092915050565b828054600181600116156101000203166002900490600052602060002090601f016020900481019282601f106116ed57805160ff191683800117855561171b565b8280016001018555821561171b579182015b8281111561171a5782518255916020019190600101906116ff565b5b509050611728919061172c565b5090565b61174e91905b8082111561174a576000816000905550600101611732565b5090565b90565b60008082840290506000841480611772575082848281151561176f57fe5b04145b151561177a57fe5b8091505092915050565b600080828401905083811015151561179857fe5b80915050929150505600a165627a7a723058201a2ab0da7b585a511bd7482af28b7a73c6b04a5248bf41a65f96a51d98b130d00029",
  "source": "pragma solidity ^0.4.23;\n\nimport \"../installed_contracts/zeppelin/contracts/ownership/Ownable.sol\";\nimport \"../installed_contracts/zeppelin/contracts/math/SafeMath.sol\";\n\ninterface token {\n    function transfer(address receiver, uint amount) external;\n    function balanceOf(address add) external view returns (uint256);\n}\n\n/** @title Survey. */\ncontract Survey is Ownable {\n\n  using SafeMath for uint;\n\n  struct Answer {\n    string answer;\n    bool exist;\n    bool withdrawn;\n  }\n\n  token public tokenReward;\n  address public manager;\n  uint public deadline;\n  string public description;\n  string public questions;\n  bool private stopped = false;\n\n  mapping(address => Answer) private answers;\n  address[] private respondent;\n\n  /** @dev constructor\n    * @param _description survey description.\n    * @param _questions questions in json format.\n    * @return _durationInMinutes survey will end after this period of time.\n    * @return tokenAddress ERC20 address used as reward.\n    */\n  constructor(string _description, string _questions, uint _durationInMinutes, address tokenAddress, address _owner) public {\n    description = _description;\n    questions = _questions;\n    deadline = now.add(_durationInMinutes.mul(1 minutes));\n    owner = _owner;\n    manager = msg.sender;\n    tokenReward = token(tokenAddress);\n  }\n\n  /** @dev make sure survey is before deadline. */\n  modifier beforeDeadline() {\n    require(now <= deadline);\n    _;\n  }\n\n  /** @dev make sure survey is after deadline. */\n  modifier afterDeadline() {\n    require(now > deadline);\n    _;\n  }\n\n  /** @dev make sure survey still has some reward left for respondent. */\n  modifier rewardLeft() {\n    require(getRewardLeft() >= 1);\n    _;\n  }\n\n  /** @dev make sure msg.sender is manager. */\n  modifier onlyManager() {\n    require(msg.sender == manager);\n    _;\n  }\n\n  /** @dev make sure contract is not stopped. */\n  modifier stopInEmergency { \n    require(!stopped);\n    _;\n  }\n\n  /** @dev return summary of survey. */\n  function getSummary() public view returns (address, string, string, uint, uint, address, uint) {\n    return (\n      this,\n      description,\n      questions,\n      respondent.length,\n      tokenReward.balanceOf(this),\n      owner,\n      deadline\n    );\n  }\n\n  /** @dev stop contract for emergency situation. */\n  function stopContract() public onlyOwner {\n    stopped = true;\n  }\n\n  /** @dev activate contract when emergency situation is over. */\n  function activateContract() public onlyOwner {\n    stopped = false;\n  }\n\n  /** @dev return ERC20 reward still available to respondent. */\n  function getRewardLeft() public view returns (uint) {\n    return tokenReward.balanceOf(this).sub(respondent.length);\n  }\n\n  /** @dev answer survey\n    * this method can only be called by survey factory contract\n    * in the future, survey factory can implement more safety measure\n    * @param a json format answer.\n    * @param responder address of survey taker.\n    */\n  function answer(string a, address responder) \n    public \n    rewardLeft\n    beforeDeadline\n    onlyManager\n    stopInEmergency\n  {\n    if (answers[responder].exist) {\n      revert(\"Already answered\");\n    }\n\n    respondent.push(responder);\n    answers[responder] = Answer({ answer:a, exist: true, withdrawn: false });\n  }\n\n  /** @dev get answer by specified address\n    * @param add address of survey taker.\n    */\n  function getAnswer(address add) public view returns(string) {\n    return answers[add].answer; \n  }\n\n  /** @dev get respondent addresses. */\n  function getRespondent() public view returns(address[]) {\n    return respondent; \n  }\n\n  /** @dev withdraw ERC20 token after survey. */\n  function withdrawToken() public afterDeadline stopInEmergency {\n    if (msg.sender == owner) {\n\n      // if you are owner, you can withdraw every token left over\n      uint leftOver = tokenReward.balanceOf(this).sub(respondent.length);\n      if (leftOver > 1) {\n        tokenReward.transfer(msg.sender, leftOver);\n      }\n\n    } else {\n\n      // if you are respondent, you can get 1 token\n      Answer storage a = answers[msg.sender];\n      if (a.exist && !a.withdrawn) {\n        a.withdrawn = true;\n        tokenReward.transfer(msg.sender, 1);\n      }\n    }\n  }\n\n}",
  "sourcePath": "/Users/local/github/ether-survey/contracts/Survey.sol",
  "compiler": {
    "name": "solc",
    "version": "0.4.24+commit.e67f0147.Emscripten.clang"
  },
  "schemaVersion": "2.0.1",
  "updatedAt": "2018-08-19T07:05:56.676Z"
}